:020000001D28B9
:100008007E14803100308600003087000B1F0D28D9
:100018000E281B282100111C122813281B28200039
:10002800111C172818281B288331F52380317E10CE
:1000380009001E28F801F901FA012000BD01BE01DE
:10004800BF01C001C101C201C301C401C5017E10C5
:1000580020002E2884310B2480316330F3000430D3
:10006800F4008431572480313B001B173B170B17D2
:100078008B1722008C160C1683314823803181316E
:10008800F1218031E830F3000330F4008331DF23BD
:100098008031813184218031E830F3000330F4006D
:1000A8008331DF2380319F30F3000F30F400843137
:1000B8005124803120008C1D622863286628013075
:1000C800C10072280230C100722834302000B60006
:1000D800F130890B6D28B60B6D28003220008C1D7D
:1000E8007628772869284103031D7B287C288128E6
:1000F80001308231FE228031982802308231FE227E
:100108008031982822008C126430F3000030F4000B
:100118008331DF23803122008C166430F3000030F5
:10012800F4008331DF23803120008C199C289D281E
:1001380086280A30AE000030AF0082319522803127
:1001480020002908B1002808B000823143228031FC
:1001580020002E080F3EBA000130B9005E29833115
:10016800252380312000B80022008C1602302000A0
:10017800B7000430B600BA30890BC028B60BC028C7
:10018800B70BC0280000200038084A3E840084309D
:100198000318013E850000088231FE2280312200CA
:1001A8008C1284316F24803168302000B600E4302E
:1001B800890BDC28B60BDC28000084316C248031E4
:1001C80020004103031DE928EA282B290A303902B7
:1001D8000318EF28F028FA2834302000B600F13050
:1001E800890BF428B60BF42800325B293A08B600CC
:1001F800B7013608BB003708BC003C08803AB60097
:1002080080303602031D0A2901303B0203180D29EC
:100218000E290F295B2934302000B600F130890BF4
:100228001329B60B13290032FF302000BB07FF301B
:10023800BC3D3C08803AB60080303602031D2629B2
:1002480001303B02031829292A290F295B293A087A
:10025800B600B7013608BB003708BC003C08803A36
:10026800B60080303602031D3B2901303B020318DB
:100278003E293F2940295B2934302000B600F1305F
:10028800890B4429B60B44290032FF302000BB07F4
:10029800FF30BC3D3C08803AB60080303602031D72
:1002A800572901303B0203185A295B29402901309C
:1002B8002000B9073A083902031C63296429B328C6
:1002C8006E2934302000B600F130890B6929B60B4D
:1002D8006929003220008C1D7229732965297D291E
:1002E80034302000B600F130890B7829B60B782914
:1002F800003220008C198129822974299D281D2803
:1003080066302000A2002F30A3006430A400003023
:10031800A5008331C823813137302000A200323054
:10032800A3006430A4000030A5008331C8238131C4
:1003380066302000A2002F30A3006430A4000030F3
:10034800A5008331C823813137302000A200323024
:10035800A3006430A4000030A5008331C823813194
:1003680066302000A2002F30A3006430A4000030C3
:10037800A5008331C823813145302000A2003F30D9
:10038800A3006430A4000030A5008331C823813164
:1003980034302000A2003530A3006430A4000030BF
:1003A800A5008331C8238131B8302000A2003B303A
:1003B800A3006430A4000030A5008331C823813134
:1003C80005302000A2004730A3006430A4000030AC
:1003D800A5008331C8238131080022008C12013026
:1003E8008231FE228131E830F3000330F40083319A
:1003F800DF23813102308231FE228131E830F3007F
:100408000330F4008331DF23813104308231FE224E
:100418008131E830F3000330F4008331DF23813188
:1004280008308231FE228131E830F3000330F400D5
:100438008331DF23813140308231FE228131E8303F
:10044800F3000330F4008331DF238131203082311F
:10045800FE228131E830F3000330F4008331DF23DA
:10046800813110308231FE228131E830F3000330CF
:10047800F4008331DF23813122008C16080020002C
:10048800B301B11F482A492A502AB009B109B00A54
:100498000319B10A0130B300AF1F532A542A592A4D
:1004A800AE09AF09AE0A0319AF0A2E082F040319C3
:1004B8005E2A5F2A862A0130B200692A0130AE35E9
:1004C800AF0D890B632A0130B207AF1F6C2A6D2A62
:1004D800622A2F083102031D732A2E083002031CDA
:1004E800762A772A7B2A2E08B0022F08B13B0130E2
:1004F800AF36AE0C890B7C2A0130B202031D852A67
:10050800862A6D2A330803198A2A8B2A902AB00969
:10051800B109B00A0319B10A3108AF003008AE00BA
:10052800080020004508A3004408A2004308A100D1
:100538004208A0004C30A7009530A6007F30A500E7
:100548002D30A4008231CA228231013020002007D8
:10055800C2000030213DC3000030223DC4000030FD
:10056800233DC5004208AA004308AB004408AC007C
:100578004508AD001130AD36AC0CAB0CAA0C890B9C
:10058800BF2A2B08A9002A08A80008000030F60096
:100598000030F5000030F4000030F3002000201C8B
:1005A800D62AD72ADF2A2408F3072508F43D260887
:1005B800F53D2708F63D0130A435A50DA60DA70D7C
:1005C800890BE02A0130A336A20CA10CA00C890BE0
:1005D800E72A2308220421042004031DF42AF52A0B
:1005E800D22A7608A3007508A2007408A10073082F
:1005F800A0000800F400F50101307405F3002200A2
:100608000C087306FE3973068C007408F300013079
:10061800F336890B0C2B7308F4008C140D30890BFE
:10062800132B000022008C100D30890B192B0000B1
:100638000130F50708307502031C232B242B002BEF
:1006480008008431692483312000B400B5013408DE
:10065800F3003508F4008431382483310630200053
:10066800AE000030AF008231952283312000290886
:10067800B1002808B00082314322833120002E08BF
:10068800013EF7007708080021000C1623000C161D
:100698000D3021009D009D149D18532B542B502B79
:1006A8001C08F6001B08F5007608F4007508F3002E
:1006B80084313824833123000C1221000C120800E5
:1006C80020001810FC309700183096001708F90021
:1006D8001608F80099017C30C8000430C9000030C1
:1006E800C6000030C7001110210011142530200069
:1006F800980008003B00BC01BD01BE01BF01C0015C
:10070800B2010B30B1000730B400E030B3000F3055
:10071800B600C030B5007E30B8000230B700BA016C
:10072800B901BB010800303022008C0008302100DC
:100738008C0023008C01083024008C0021009513C4
:1007480025008C01373026008C003F3027008C00B4
:1007580091019201930108002000181DB42BB52BBC
:10076800C32B18080139F200181071089700700897
:100778009600720C031C181003181814C72B710864
:10078800970070089600080020002308F40022084B
:10079800F30084315124833184316F248331200064
:1007A8002508F4002408F3008331DF2383318431E2
:1007B8006C248331080020003E08A1003D08A000F9
:1007C80020083D02F50021083E3BF6007408760239
:1007D800031DF02B73087502031CF32BF42BE42B79
:1007E80008007908F1007808F0008331B0238331DC
:1007F8002000480849040319022C032C082C490836
:100808008A0048080A008431200011100800843149
:100818004224843183319723843183317E23843188
:1008280084311E24843183316423843184312D241E
:1008380084310800210095121516F8309505951594
:1008480020009501FA010030CA000030CB000B11DE
:1008580008008B10210015170030F3000030F40059
:1008680084315D24843108007308FF3E2000C200F3
:10087800FF30743DC300C401C50108007830210071
:1008880099002200960121009801080000340834DC
:1008980044344C3455345D34773474083B00B60026
:1008A8007308B500080074082000C9007308C80060
:1008B800080074082000CD007308CC00080001303F
:1008C8002000BD070030BE3D0800200015080800C4
:1008D8003B00BB1308003B00BB170800C8340034BA
:1008E80064340034C8340034643400340A340034C6
:0208F8000800F6
:020000040001F9
:04000E00A43FFF1EEE
:00000001FF
