:0200000037289F
:100008007E14803100308600003087008B1D0D285B
:100018000E2816280B1C1128122816288531DF25D2
:10002800803135280B1F19281A2835282100111C62
:100038001E281F2828282000111C232824282828A7
:1000480085314825803135282100911C2C282D2800
:1000580035282000911C31283228352885318D25F6
:1000680080317E1009003828F801F901FA013D3085
:100078008400003085000F308531FF2580317E10E7
:1000880020004628853132258031E830F3000530DC
:10009800F40086310B2680313F30F3000430F40041
:1000A800863105268031F030F3000530F4008631C2
:1000B800112680313B003B172300971422008C1631
:1000C8000C160B178B1784317E24803101302000E9
:1000D800C50084319B248031FF308331FD2380317A
:1000E80022008C1282312B228031F4302000B200A1
:1000F8000130B30085315E25803101302000C70012
:1001080086312926803120004703031D8C288D283D
:10011800B72808308331FD23803122008C12023049
:100128002000B9004530B800A930890B9928B80BD0
:100138009928B90B9928003222008C160230200029
:10014800B9004530B800A930890BA828B80BA828F1
:10015800B90BA828003220004603031DB428B5288F
:10016800B7280230C70002304706031DBC28BD2847
:100178002B294603031DC128C2282B290A30AE00AB
:100188000030AF008231EA22803120002908B10016
:100198002808B00082319822803120002E080F3EB6
:1001A800BA000130BC0014298331B123803120000A
:1001B800BB0022008C1632302000A2000030A300C1
:1001C80083318323803120003B088531AB25803182
:1001D80022008C12F4302000B4000130B500143035
:1001E800B6000030B70085311B25803120003C085F
:1001F800B800B9013808F3003908F4000A30F500EE
:100208000030F6008331DB23803174082000A3001E
:100218007308A20083318323803101302000BC079A
:100228003A083C02031C19291A29D8283B088331AB
:10023800532380312000C6018C1D2329242920291D
:100248000A30A2000030A3008331832380310330B9
:1002580020004706031D312932298929D030B400EE
:100268000730B5003230B6000030B70085311B25A5
:100278008031DC302000B4000530B5003230B600E3
:100288000030B70085311B25803122008C1686315D
:100298002C2680318631262680318B130B132200C1
:1002A800961363000000220096170B178B178631F0
:1002B8002926803186312F26803122008C12DC30AD
:1002C8002000B4000530B5003230B6000030B70069
:1002D80085311B258031D0302000B4000730B500AF
:1002E8003230B6000030B70085311B25803102302E
:1002F8002000C7001430A2000030A30083318323FC
:1003080080312000C6010130C50004304706031DB6
:100318008E298F298728D030B4000730B5003230B5
:10032800B6000030B70085311B2580310130200030
:10033800C700872837282000A901A31FA429A529B9
:10034800B229A009A109A209A309A00A0319A10AAF
:100358000319A20A0319A30A0130A900A71FB52986
:10036800B629C329A409A509A609A709A40A031936
:10037800A50A0319A60A0319A70A0130A90600301D
:10038800AD000030AC000030AB000030AA002308FC
:100398002204210420040319D229D329122A013066
:1003A800A800DF290130A035A10DA20DA30D890BEE
:1003B800D7290130A807A31FE229E329D62901304C
:1003C800AA35AB0DAC0DAD0D890BE4292308270226
:1003D800031DF82922082602031DF82921082502F1
:1003E800031DF82920082402031CFB29FC29052ADF
:1003F8002008A4022108A53B2208A63B2308A73B06
:100408002A140130A336A20CA10CA00C890B062AD1
:100418000130A802031D112A122AE3292908031909
:10042800162A172A222AAA09AB09AC09AD09AA0A71
:100438000319AB0A0319AC0A0319AD0A2D08A30066
:100448002C08A2002B08A1002A08A0000800C03030
:100458002000B2001130B3002C30B4000130B500D8
:1004680084315F248231C0302000B2001130B300E3
:100478002C30B4000130B50084315F248231C030A3
:100488002000B2001130B3002C30B4000130B500A8
:1004980084315F2482315D302000B2001630B30011
:1004A800D230B4000030B50084315F248231ED30A1
:1004B8002000B2000E30B3005A30B4000030B5004E
:1004C80084315F248231C0302000B2001130B30083
:1004D8002C30B4000130B50084315F2482315D30A6
:1004E8002000B2001630B300D230B4000030B5009E
:1004F80084315F248231ED302000B2000E30B30029
:100508005A30B4000030B50084315F248231C030E5
:100518002000B2001130B3002C30B4000130B50017
:1005280084315F24823108002000B301B11F9D2A65
:100538009E2AA52AB009B109B00A0319B10A0130E7
:10054800B300AF1FA82AA92AAE2AAE09AF09AE0A7E
:100558000319AF0A2E082F040319B32AB42ADB2A79
:100568000130B200BE2A0130AE35AF0D890BB82A72
:100578000130B207AF1FC12AC22AB72A2F08310299
:10058800031DC82A2E083002031CCB2ACC2AD02AE5
:100598002E08B0022F08B13B0130AF36AE0C890BE4
:1005A800D12A0130B202031DDA2ADB2AC22A330813
:1005B8000319DF2AE02AE52AB009B109B00A0319AC
:1005C800B10A3108AF003008AE00080020004B081F
:1005D800A3004A08A2004908A1004808A0004C301E
:1005E800A7009530A6007F30A5002D30A4008331E8
:1005F8001F238231013020002007C8000030213D30
:10060800C9000030223DCA000030233DCB00480815
:10061800AA004908AB004A08AC004B08AD001130ED
:10062800AD36AC0CAB0CAA0C890B142B2B08A9000B
:100638002A08A80008000030F6000030F500003055
:10064800F4000030F3002000201C2B2B2C2B342B23
:100658002408F3072508F43D2608F53D2708F63D4C
:100668000130A435A50DA60DA70D890B352B01303A
:10067800A336A20CA10CA00C890B3C2B2308220446
:1006880021042004031D492B4A2B272B7608A3009D
:100698007508A2007408A1007308A0000800F700FC
:1006A8006E2BD0302000B4000730B5006430B6009F
:1006B8000030B70085311B25833160302000B4003D
:1006C8000930B500C830B6000030B70085311B25A9
:1006D8008331822B7708013A0319822B033A0319D5
:1006E800822B013A0319822B073A0319822B013A0C
:1006F8000319822B033A0319552B822B080020007B
:100708004008AF003F08AE003E08AD003D08AC0011
:100718002208A4002308A500A601A7012C083D0271
:10072800A8002D083E3BA9002E083F3BAA002F0831
:10073800403BAB0027082B02031DAC2B26082A02DE
:10074800031DAC2B25082902031DAC2B2408280205
:10075800031CAF2BB02B8C2B080020004503031D76
:10076800B62BB72BC52BC50186311D26833120003A
:10077800B400B5013408F3003508F4008531C32509
:10078800833106302000AE000030AF008231EA220B
:10079800833120002908B1002808B000823198224E
:1007A800833120002E08013EF7007708080020005A
:1007B800A001A101731CE12BE22BE72B7508200097
:1007C800A0077608A13D0130F535F60D890BE82B19
:1007D8000130F436F30C890BED2B73087404031DF8
:1007E800F62BF72BDE2B20002108F4002008F3005D
:1007F8000800F400F50101307405F30022000C082C
:100808007306FE3973068C007408F3000130F33662
:10081800890B0B2C7308F4008C14000022008C1038
:1008280000000130F50708307502031C1C2C1D2C34
:10083800FF2B080022008C01083021008C002300C7
:100848008C01083024008C002100951325008C01B0
:10085800373026008C003F3027008C00910108308B
:10086800920093013730F3000630F40086311126E8
:1008780084318B15080001302000C3070030C43DC7
:1008880001304402C93003194302031C4C2C4D2C7F
:100898005E2C02304706031D522C532C552C033076
:1008A800C7004703031D592C5A2C5C2C0430C70081
:1008B800C301C401080020003308B1003208B000A9
:1008C8008531CD25843186312326843120003508B1
:1008D800A3003408A2008331832384318631202683
:1008E80084312130F7007630890B782CF70B782C7F
:1008F8000032080021000C1623000C160D302100D0
:100908009D009D149D18892C8A2C862C1C08F600A5
:100918001B08F5007608F4007508F3008531C32537
:10092800843123000C1221000C121D100800220033
:100938008C120130F70077088531AB258431FA3005
:100948002000A2000030A3008331832384310130CA
:10095800F70707307702031CB22CB32C9F2C220018
:100968008C16080020002E08A0002F08A100A20164
:10097800A3010030A7003D30A6000930A5000030D3
:10098800A40081319F21843120002008FF3EAE0061
:10099800FF30213DAF00080020001810FC30970000
:1009A800183096001708F9001608F8009901363033
:1009B800D0000630D1000030CE000030CF0011103A
:1009C8002100111405302000980008003B00BC01EC
:1009D800BD01BE01BF01C001B2010330B100013049
:1009E800B400F430B3000330B600E830B5001F306F
:1009F800B8004030B700BA01B901BB0108002000B7
:100A0800181D072D082D162D18080139F200181089
:100A18007108970070089600720C031C18100318D0
:100A280018141A2D71089700700896000800200005
:100A38003508B3003408B20085315E25853186312A
:100A48002326853120003708A3003608A200833109
:100A58008323853186312026853108008531D625C6
:100A6800853184311E2485318431EA2485318531EC
:100A78007E2585318431D024853185316F258531B6
:100A88008531B825853108007908F1007808F0002B
:100A98008531032585312000500851040319552D4F
:100AA800562D5B2D51088A0050080A008531200018
:100AB8001110080020003308AF003208AE0084315E
:100AC800B624853120002F08B1002E08B0008531EA
:100AD800CD25853108003F3020009B009A01353034
:100AE800CC000630CD009110210091147B302000FD
:100AF8009C000800210095121516073095049515DD
:100B080020009501FA010030D2000030D3000B110B
:100B1800080020004C084D040319932D942D992D9D
:100B28004D088A004C080A00853120009110080001
:100B38002000540855040319A22DA32DA82D5508EB
:100B48008A0054080A008531270093110800F6002E
:100B58007608F83E840085300318013E85000008B9
:100B68008331FD23853108008B10210015170030D3
:100B7800F3000030F4008631172685310800730829
:100B8800FF3E2000C800FF30743DC900CA01CB01F8
:100B98000800200031083B00B600200030083B0068
:100BA800B5000800683021009900803022009600C6
:100BB8002100980108002700931DE32DE42DE72D5F
:100BC80085319C258531080001302000BD070030A3
:100BD800BE3DBF3DC03D080001302000C6000230C8
:100BE800C700C301C40108000034083444344C343D
:100BF80055345D347734640080010131890B002E4F
:100C0800003474082000CD007308CC000800740874
:100C18002000D1007308D000080074082000D50017
:100C28007308D400080074082000D7007308D600A1
:100C380008002000150808003B00BB1308003B0013
:100C4800BB17080020001C11080020001C15080014
:100C5800200018100800200018140800013400347F
:080C6800013408000800080037
:020000040001F9
:04000E00A43BFF1EF2
:00000001FF
