:0200000037289F
:100008007E14803100308600003087008B1D0D285B
:100018000E2816280B1C1128122816288531D125E0
:10002800803135280B1F19281A2835282100111C62
:100038001E281F2828282000111C232824282828A7
:1000480085313E25803135282100911C2C282D280A
:1000580035282000911C3128322835288531722511
:1000680080317E1009003828F801F901FA013D3085
:100078008400003085000F308531F12580317E10F5
:1000880020004628853128258031DA30F3000530F4
:10009800F4008531FD2580312D30F3000430F40063
:1000A8008531F7258031E230F3000530F4008631E0
:1000B800032680313B003B172300971422008C163F
:1000C8000C160B178B1784318B24803101302000DC
:1000D800C5008431A8248031FF308331EB2380317F
:1000E80022008C12823148228031A0302000AE00DC
:1000F8000F30AF008431C324803120002F08B100B5
:100108002E08B0008531BF25803101302000C7009E
:1001180086311B26803120004703031D942895282B
:10012800BF2808308331EB23803122008C12023043
:100138002000B9004530B800A930890BA128B80BB8
:10014800A128B90BA128003222008C160230200009
:10015800B9004530B800A930890BB028B80BB028D1
:10016800B90BB028003220004603031DBC28BD2867
:10017800BF280230C70002304706031DC428C5281F
:1001880048294603031DC928CA2848290A30AE0051
:100198000030AF0083310723803120002908B100E7
:1001A8002808B0008231B522803120002E080F3E89
:1001B800BA000130BC00182983319E238031200009
:1001C800BB0022008C1632302000A2000030A300B1
:1001D80083317023803120003B08853190258031A0
:1001E80022008C1214302000B6000030B700853190
:1001F8009D25803120003C08B800B9013808F3007B
:100208003908F4000A30F5000030F6008331C923BC
:10021800803174082000A3007308A2008331702382
:10022800803101302000BC073A083C02031C1D291C
:100238001E29E02806303B06031D232924293B29D3
:10024800D030B2000730B3006430B4000030B500DD
:1002580084316C24803160302000B2000930B30052
:10026800C830B4000030B50084316C2480312000DF
:10027800C6018C1D402941293D290A30A2000030C1
:10028800A300833170238031033020004706031D0B
:100298004E294F29A629D030B2000730B30032309A
:1002A800B4000030B50084316C248031DC3020008B
:1002B800B2000530B3003230B4000030B5008431EC
:1002C8006C24803122008C1686311E2680318631BE
:1002D800182680318B130B1322009613630000003D
:1002E800220096170B178B1786311B268031863113
:1002F8002126803122008C12DC302000B20005302B
:10030800B3003230B4000030B50084316C24803141
:10031800D0302000B2000730B3003230B4000030D3
:10032800B50084316C24803102302000C7001430BD
:10033800A2000030A3008331702380312000C60161
:100348000130C50004304706031DAB29AC298F28AE
:10035800D030B2000730B3003230B4000030B500FE
:1003680084316C24803101302000C7008F28372861
:100378002000A901A31FC129C229CF29A009A109C9
:10038800A209A309A00A0319A10A0319A20A0319B9
:10039800A30A0130A900A71FD229D329E029A4095B
:1003A800A509A609A709A40A0319A50A0319A60AF3
:1003B8000319A70A0130A9060030AD000030AC00CF
:1003C8000030AB000030AA002308220421042004D6
:1003D8000319EF29F0292F2A0130A800FC29013040
:1003E800A035A10DA20DA30D890BF4290130A80792
:1003F800A31FFF29002AF3290130AA35AB0DAC0D44
:10040800AD0D890B012A23082702031D152A22088E
:100418002602031D152A21082502031D152A200876
:100428002402031C182A192A222A2008A4022108B7
:10043800A53B2208A63B2308A73B2A140130A33674
:10044800A20CA10CA00C890B232A0130A802031DC1
:100458002E2A2F2A002A29080319332A342A3F2A48
:10046800AA09AB09AC09AD09AA0A0319AB0A031911
:10047800AC0A0319AD0A2D08A3002C08A2002B080A
:10048800A1002A08A0000800C0302000B2001130E6
:10049800B300A630B4000030B50084314D24823159
:1004A800C0302000B2001130B300A630B4000030D4
:1004B800B50084314D248231C0302000B2001130A3
:1004C800B300A630B4000030B50084314D24823129
:1004D8005D302000B2001630B3007430B400003034
:1004E800B50084314D248231ED302000B2000E3049
:1004F800B3003230B4000030B50084314D2482316D
:10050800C0302000B2001130B300A630B400003073
:10051800B50084314D2482315D302000B2001630A0
:10052800B3007430B4000030B50084314D248231FA
:10053800ED302000B2000E30B3003230B40000308D
:10054800B50084314D248231C0302000B200113012
:10055800B300A630B4000030B50084314D24823198
:1005680008002000B301B11FBA2ABB2AC22AB00969
:10057800B109B00A0319B10A0130B300AF1FC52A87
:10058800C62ACB2AAE09AF09AE0A0319AF0A2E084C
:100598002F040319D02AD12AF82A0130B200DB2A05
:1005A8000130AE35AF0D890BD52A0130B207AF1F28
:1005B800DE2ADF2AD42A2F083102031DE52A2E0855
:1005C8003002031CE82AE92AED2A2E08B0022F0877
:1005D800B13B0130AF36AE0C890BEE2A0130B202C6
:1005E800031DF72AF82ADF2A33080319FC2AFD2AF3
:1005F800022BB009B109B00A0319B10A3108AF00DA
:100608003008AE00080020004B08A3004A08A200EA
:100618004908A1004808A0004C30A7009530A60062
:100628007F30A5002D30A40083313C238331013075
:1006380020002007C8000030213DC9000030223DBD
:10064800CA000030233DCB004808AA004908AB0087
:100658004A08AC004B08AD001130AD36AC0CAB0C01
:10066800AA0C890B312B2B08A9002A08A80008001E
:100678000030F6000030F5000030F4000030F300E0
:100688002000201C482B492B512B2408F307250850
:10069800F43D2608F53D2708F63D0130A435A50DA3
:1006A800A60DA70D890B522B0130A336A20CA10C65
:1006B800A00C890B592B2308220421042004031DB4
:1006C800662B672B442B7608A3007508A2007408D4
:1006D800A1007308A000080020004008AF003F08F0
:1006E800AE003E08AD003D08AC002208A400230877
:1006F800A500A601A7012C083D02A8002D083E3B35
:10070800A9002E083F3BAA002F08403BAB00270852
:100718002B02031D992B26082A02031D992B250855
:100728002902031D992B24082802031C9C2B9D2BAE
:10073800792B080020004508031DA32BA42BB32BFD
:100748000130C50086310F2683312000B400B50181
:100758003408F3003508F4008531B52583310630B7
:100768002000AE000030AF00833107238331200022
:100778002908B1002808B0008231B5228331200051
:100788002E08013EF700770808002000A001A1010B
:10079800731CCF2BD02BD52B75082000A00776080B
:1007A800A13D0130F535F60D890BD62B0130F43615
:1007B800F30C890BDB2B73087404031DE42BE52B66
:1007C800CC2B20002108F4002008F3000800F400D6
:1007D800F50101307405F30022000C087306FE3998
:1007E80073068C007408F3000130F336890BF92B7B
:1007F8007308F4008C14000022008C1000000130F3
:10080800F50708307502031C0A2C0B2CED2B080089
:1008180022008C01083021008C0023008C01083054
:1008280024008C002100951325008C013730260008
:100838008C003F3027008C00910108309200930112
:100848002D30F3000630F4008631032684318B15F1
:10085800080001302000C3070030C43D01304402C5
:10086800C93003194302031C3A2C3B2C4C2C023090
:100878004706031D402C412C432C0330C700470377
:10088800031D472C482C4A2C0430C700C301C4015F
:10089800080020003308B1003208B0008531BF25B8
:1008A800843186311526843120003508A3003408A8
:1008B800A20083317023843186311226843121309D
:1008C800F7007630890B662CF70B662C003208008F
:1008D80020003308AF003208AE008431C3248431CD
:1008E80020002F08B1002E08B0008531BF258431C3
:1008F80086311526843120003508A3003408A2006B
:100908008331702384318631122684310800210016
:100918000C1623000C160D3021009D009D149D1807
:10092800962C972C932C1C08F6001B08F5007608CB
:10093800F4007508F3008531B525843123000C12C5
:1009480021000C121D10080022008C120130F70043
:100958007708853190258431FA302000A2000030D4
:10096800A3008331702384310130F7070730770201
:10097800031CBF2CC02CAC2C22008C1608002000B5
:100988002E08A0002F08A100A201A3010030A70093
:100998003D30A6000930A5000030A4008131BC21FB
:1009A800843120002008FF3EAE00FF30213DAF001B
:1009B800080020001810FC3097001830960017081F
:1009C800F9001608F80099012C30D0000630D10043
:1009D8000030CE000030CF00111021001114053076
:1009E8002000980008003B00BC01BD01BE01BF010A
:1009F800C001B2010330B1000130B400F430B300DB
:100A08000330B600E830B5001F30B8004030B700FA
:100A1800BA01B901BB0108002000181D142D152DBD
:100A2800232D18080139F200181071089700700872
:100A38009600720C031C181003181814272D71083F
:100A480097007008960008008531C82585318431E3
:100A58000C2485318431F72485318531632585312E
:100A68008431DD2485318531542585318531AA25A8
:100A7800853108007908F1007808F00085311025E3
:100A8800853120005008510403194B2D4C2D512D50
:100A980051088A0050080A0085312000111008000A
:100AA8003F3020009B009A012B30CC000630CD004F
:100AB8009110210091147B3020009C000800210037
:100AC8009512151607309504951520009501FA0121
:100AD8000030D2000030D3000B11080020004C0871
:100AE8004D040319782D792D7E2D4D088A004C0868
:100AF8000A00853120009110080020005408550490
:100B08000319872D882D8D2D55088A0054080A0051
:100B18008531270093110800F6007608EA3E840024
:100B280085300318013E850000088331EB238531A9
:100B38000800A0302000B2000F30B3003708B5001D
:100B48003608B40084316C24853108008B102100EC
:100B580015170030F3000030F4008631092685317E
:100B680008007308FF3E2000C800FF30743DC9002C
:100B7800CA01CB010800200031083B00B600200064
:100B880030083B00B500080068302100990080302B
:100B9800220096002100980108002700931DD52DFA
:100BA800D62DD92D853181258531080001302000C9
:100BB800BD070030BE3DBF3DC03D080001302000EC
:100BC800C6000230C700C301C4010800003408345D
:100BD80044344C3455345D34773464008001013139
:100BE800890BF22D003474082000CD007308CC0066
:100BF800080074082000D1007308D00008007408A9
:100C08002000D5007308D400080074082000D7001D
:100C18007308D60008002000150808003B00BB1325
:100C280008003B00BB17080020001C11080020002A
:100C38001C150800200018100800200018140800CF
:100C48006434003432340034013400340134080090
:040C58000800080088
:020000040001F9
:04000E00A43BFF1EF2
:00000001FF
