:0200000037289F
:100008007E14803100308600003087008B1D0D285B
:100018000E2816280B1C112812281628853184252D
:10002800803135280B1F19281A2835282100111C62
:100038001E281F2828282000111C232824282828A7
:100048008431DF24803135282100911C2C282D286B
:1000580035282000911C312832283528853125255E
:1000680080317E1009003828F801F901FA013D3085
:100078008400003085000E308531A42580317E1043
:10008800200046288431C92480318D30F3000530A2
:10009800F4008531B0258031F530F3000430F400E8
:1000A8008531AA2580319530F3000530F40085317B
:1000B800B62580313B003B172300971422008C168D
:1000C8000C160B178B1784312C248031843149246A
:1000D800803182311122803102302000C600853102
:1000E800CE258031A0302000AE000F30AF00843123
:1000F8006424803120002F08B1002E08B00085311B
:100108007225803108308331AC2380319F2822004A
:100118008C12FA302000A2000030A300833139236A
:10012800803122008C16FA302000A2000030A30093
:1001380083313923803120004503031DA428A528D5
:100148008B284503031DA928AA2828290A30AE00B0
:100158000030AF008231D022803120002908B10060
:100168002808B00082317E22803120002E080F3E00
:10017800BA000130BC00F8288331672380312000A1
:10018800BB0022008C1632302000A2000030A300F1
:1001980083313923803120003B0885314325803164
:1001A80022008C1214302000B6000030B7008531D0
:1001B8005025803120003C08B800B9013808F30008
:1001C8003908F4000A30F5000030F60083318A233C
:1001D800803174082000A3007308A20083313923FA
:1001E800803101302000BC073A083C02031CFD287E
:1001F800FE28C02806303B06031D032904291B29B5
:10020800D030B2000730B3006430B4000030B5001D
:1002180084310D24803160302000B2000930B300F1
:10022800C830B4000030B50084310D24803120007E
:10023800C5018C1D202921291D290A30A200003062
:10024800A30083313923803120004608031D2D295E
:100258002E29A528E830B2000330B3003230B400AC
:100268000030B50084310D24803120302000B200E8
:100278000330B3003230B4000030B50084310D24AF
:10028800803122008C168531D12580318531CB25EE
:1002980080318B130B132200961363000000220099
:1002A80096170B178B178531CE2580318531D425CC
:1002B800803122008C1220302000B2000330B300BD
:1002C8003230B4000030B50084310D248031E8307C
:1002D8002000B2000330B3003230B4000030B50063
:1002E80084310D24803102302000C6001430A20071
:1002F8000030A3008331392380312000C501A528AF
:1003080037282000A901A31F8A298B299829A00929
:10031800A109A209A309A00A0319A10A0319A20A9B
:100328000319A30A0130A900A71F9B299C29A92901
:10033800A409A509A609A709A40A0319A50A031966
:10034800A60A0319A70A0130A9060030AD0000303B
:10035800AC000030AB000030AA00230822042104BE
:1003680020040319B829B929F8290130A800C5299A
:100378000130A035A10DA20DA30D890BBD290130B7
:10038800A807A31FC829C929BC290130AA35AB0D64
:10039800AC0DAD0D890BCA2923082702031DDE29E0
:1003A80022082602031DDE2921082502031DDE2955
:1003B80020082402031CE129E229EB292008A402D1
:1003C8002108A53B2208A63B2308A73B2A14013095
:1003D800A336A20CA10CA00C890BEC290130A802B1
:1003E800031DF729F829C92929080319FC29FD291A
:1003F800082AAA09AB09AC09AD09AA0A0319AB0A6C
:100408000319AC0A0319AD0A2D08A3002C08A20091
:100418002B08A1002A08A0000800C0302000B20064
:100428001130B300A630B4000030B5008331EE239C
:100438008231C0302000B2001130B300A630B400C1
:100448000030B5008331EE238231C0302000B20085
:100458001130B300A630B4000030B5008331EE236C
:1004680082315D302000B2001630B3007430B40021
:100478000030B5008331EE238231ED302000B20028
:100488000E30B3003230B4000030B5008331EE23B3
:100498008231C0302000B2001130B300A630B40061
:1004A8000030B5008331EE2382315D302000B20088
:1004B8001630B3007430B4000030B5008331EE2339
:1004C8008231ED302000B2000E30B3003230B4007B
:1004D8000030B5008331EE238231C0302000B200F5
:1004E8001130B300A630B4000030B5008331EE23DC
:1004F800823108002000B301B11F832A842A8B2A85
:10050800B009B109B00A0319B10A0130B300AF1F2D
:100518008E2A8F2A942AAE09AF09AE0A0319AF0AA8
:100528002E082F040319992A9A2AC12A0130B200E9
:10053800A42A0130AE35AF0D890B9E2A0130B207CF
:10054800AF1FA72AA82A9D2A2F083102031DAE2A09
:100558002E083002031CB12AB22AB62A2E08B0028D
:100568002F08B13B0130AF36AE0C890BB72A0130EA
:10057800B202031DC02AC12AA82A33080319C52AB2
:10058800C62ACB2AB009B109B00A0319B10A310841
:10059800AF003008AE00080020004A08A300490850
:1005A800A2004808A1004708A0004C30A7009530D9
:1005B800A6007F30A5002D30A400833105238231A9
:1005C800013020002007C7000030213DC80000305E
:1005D800223DC9000030233DCA004708AA00480848
:1005E800AB004908AC004A08AD001130AD36AC0C80
:1005F800AB0CAA0C890BFA2A2B08A9002A08A80018
:1006080008000030F6000030F5000030F40000303B
:10061800F3002000201C112B122B1A2B2408F3079F
:100628002508F43D2608F53D2708F63D0130A43598
:10063800A50DA60DA70D890B1B2B0130A336A20C07
:10064800A10CA00C890B222B2308220421042004CE
:10065800031D2F2B302B0D2B7608A3007508A20045
:100668007408A1007308A000080020004008AF002B
:100678003F08AE003E08AD003D08AC002208A400CB
:100688002308A500A601A7012C083D02A8002D08F3
:100698003E3BA9002E083F3BAA002F08403BAB0079
:1006A80027082B02031D622B26082A02031D622B32
:1006B80025082902031D622B24082802031C652B28
:1006C800662B422B08008531C22583312000B400F7
:1006D800B5013408F3003508F40085316825833105
:1006E80006302000AE000030AF008231D0228331C6
:1006F80020002908B1002808B00082317E22833109
:1007080020002E08013EF700770808002000A0010D
:10071800A101731C902B912B962B75082000A00724
:100728007608A13D0130F535F60D890B972B013080
:10073800F436F30C890B9C2B73087404031DA52B4A
:10074800A62B8D2B20002108F4002008F3000800B8
:10075800F400F50101307405F30022000C0873065B
:10076800FE3973068C007408F3000130F336890BE8
:10077800BA2B7308F4008C14000022008C100000BF
:100788000130F50708307502031CCB2BCC2BAE2BA0
:10079800080022008C01083021008C0023008C0105
:1007A800083024008C002100951325008C01373077
:1007B80026008C003F3027008C0091010830920001
:1007C8009301E030F3000530F4008531B62583311C
:1007D8008B15080020003308B1003208B0008531BD
:1007E800722583318531C825833120003508A3005F
:1007F8003408A2008331392383318531C5258331FB
:100808002130F7007630890B072CF70B072C0032C4
:10081800080020003308AF003208AE008431642499
:10082800843120002F08B1002E08B00085317225D0
:1008380084318531C825843120003508A300340867
:10084800A2008331392384318531C52584310800DC
:1008580021000C1623000C160D3021009D009D145C
:100868009D18372C382C342C1C08F6001B08F50072
:100878007608F4007508F300853168258431230073
:100888000C1221000C121D10080022008C120130DD
:10089800F7007708853143258431FA302000A2001B
:1008A8000030A3008331392384310130F707073042
:1008B8007702031C602C612C4D2C22008C1608003A
:1008C80020002E08A0002F08A100A201A3010030DB
:1008D800A7003D30A6000930A5000030A4008131F2
:1008E8008521843120002008FF3EAE00FF30213DE5
:1008F800AF00080020001810FC3097001830960050
:100908001708F9001608F8009901DF30CF00053004
:10091800D0000030CD000030CE001110210011149D
:1009280005302000980008003B00BC01BD01BE0155
:10093800BF01C001B2010330B1000130B400F4308E
:10094800B3000330B600E830B5001F30B8004030BF
:10095800B700BA01B901BB0108002000181DB52C69
:10096800B62CC42C18080139F20018107108970029
:1009780070089600720C031C181003181814C82C61
:100988007108970070089600080085317B2584312E
:100998008331CD23843184319824843185311625DF
:1009A800843184317E248431853107258431853131
:1009B8005D25843108007908F1007808F000843159
:1009C800B124843120004F0850040319EC2CED2C7D
:1009D800F22C50088A004F080A00843120001110B8
:1009E800080001302000C3070030C43D0130440234
:1009F800C93003194302031C022D032D062DC6011D
:100A0800C301C40108003F3020009B009A01DE307A
:100A1800CB000530CC009110210091147B302000D0
:100A28009C000800210095121516073095049515AD
:100A380020009501FA010030D1000030D2000B11DE
:100A4800080020004B084C0403192B2D2C2D312DA8
:100A58004C088A004B080A008531200091100800D4
:100A680020005308540403193A2D3B2D402D5408F7
:100A78008A0053080A008531270093110800F60000
:100A880076089D3E840085300318013E85000008E5
:100A98008331AC2385310800A0302000B2000F302C
:100AA800B3003708B5003608B40084310D24853109
:100AB80008008B10210015170030F3000030F400F7
:100AC8008531BC25853108007308FF3E2000C7002A
:100AD800FF30743DC800C901CA0108002000310870
:100AE8003B00B600200030083B00B5000800683025
:100AF800210099008030220096002100980108000A
:100B08002700931D882D892D8C2D8531342585311D
:100B1800080001302000BD070030BE3DBF3DC03D8C
:100B2800080001302000C5000230C600C301C4011E
:100B380008000034083444344C3455345D34773478
:100B4800640080010131890BA52D00347408200050
:100B5800CC007308CB00080074082000D00073088C
:100B6800CF00080074082000D4007308D3000800E0
:100B780074082000D6007308D50008002000150866
:100B880008003B00BB1308003B00BB17080020000F
:100B98001C11080020001C1508002000181008006F
:100BA800200018140800643400343234003401344E
:0A0BB80000340134080008000800B2
:020000040001F9
:04000E00A43BFF1EF2
:00000001FF
