:0200000037289F
:100008007E14803100308600003087008B1D0D285B
:100018000E2816280B1C1128122816288531B325FE
:10002800803135280B1F19281A2835282100111C62
:100038001E281F2828282000111C232824282828A7
:1000480085312025803135282100911C2C282D2828
:1000580035282000911C312832283528853154252F
:1000680080317E1009003828F801F901FA012000D2
:10007800CE01CF01D001D101D201D301D401D501E4
:10008800D601D7017E102000492885310A25803104
:10009800BC30F3000530F4008531D92580312C308F
:1000A800F3000430F4008531D3258031C430F300E7
:1000B8000530F4008531DF2580313B003B172300F4
:1000C800971422008C160C160B178B170030F300B0
:1000D800F40085319725803101302000C900843132
:1000E8008A248031FF308331EA23803122008C1248
:1000F80082314E228031A0302000AE000F30AF0098
:100108008431A524803120002F08B1002E08B000CA
:100118008531A125803101302000D7008531F425B3
:10012800803120005703031D9A289B28C5280830D2
:100138008331EA23803122008C1202302000B9007A
:100148004530B800A930890BA728B80BA728B90BE8
:10015800A728003222008C1602302000B900453052
:10016800B800A930890BB628B80BB628B90BB62841
:10017800003220005603031DC228C328C5280230B8
:10018800D70002305706031DCA28CB284E2956032C
:10019800031DCF28D0284E290A30AE000030AF000A
:1001A80083310D23803120002908B1002808B000D0
:1001B8008231BB22803120002E080F3EBA00013068
:1001C800BC001E298331A42380312000BB002200FB
:1001D8008C1632302000A2000030A3008331762331
:1001E800803120003B0885317225803122008C1235
:1001F80014302000B6000030B70085317F258031EB
:1002080020003C08B800B9013808F3003908F400A8
:100218000A30F5000030F6008331C82380317408B5
:100228002000A3007308A2008331762380310130B7
:100238002000BC073A083C02031C23292429E6288D
:1002480006303B06031D29292A294129D030B2004E
:100258000730B3006430B4000030B50084316B243B
:10026800803160302000B2000930B300C830B400DB
:100278000030B50084316B2480312000D6018C1DFC
:100288004629472943290A30A2000030A3008331B8
:1002980076238031033020005706031D5429552941
:1002A800AC29D030B2000730B3003230B40000308F
:1002B800B50084316B248031DC302000B200053079
:1002C800B3003230B4000030B50084316B24803183
:1002D80022008C168531F72580318531F125803152
:1002E8008B130B132200961363000000220096174D
:1002F8000B178B178531F42580318531FA2580312C
:1003080022008C12DC302000B2000530B3003230FD
:10031800B4000030B50084316B248031D030200027
:10032800B2000730B3003230B4000030B500843179
:100338006B24803102302000D7001430A200003036
:10034800A3008331762380312000D6010130C90013
:1003580004305706031DB129B2299528D030B200C0
:100368000730B3003230B4000030B50084316B245C
:10037800803101302000D700952837282000A901B6
:10038800A31FC729C829D529A009A109A209A3091A
:10039800A00A0319A10A0319A20A0319A30A013022
:1003A800A900A71FD829D929E629A409A509A609BA
:1003B800A709A40A0319A50A0319A60A0319A70A73
:1003C8000130A9060030AD000030AC000030AB00B1
:1003D8000030AA0023082204210420040319F52967
:1003E800F629352A0130A800022A0130A035A10DCE
:1003F800A20DA30D890BFA290130A807A31F052A0E
:10040800062AF9290130AA35AB0DAC0DAD0D890BC3
:10041800072A23082702031D1B2A22082602031D78
:100428001B2A21082502031D1B2A20082402031C5D
:100438001E2A1F2A282A2008A4022108A53B2208D0
:10044800A63B2308A73B2A140130A336A20CA10C13
:10045800A00C890B292A0130A802031D342A352A49
:10046800062A29080319392A3A2A452AAA09AB096A
:10047800AC09AD09AA0A0319AB0A0319AC0A031996
:10048800AD0A2D08A3002C08A2002B08A1002A08F9
:10049800A0000800C0302000B2001130B300A63020
:1004A800B4000030B50084314C248231C0302000C3
:1004B800B2001130B300A630B4000030B50084316A
:1004C8004C248231C0302000B2001130B300A63075
:1004D800B4000030B50084314C2482315D302000F6
:1004E800B2001630B3007430B4000030B500843167
:1004F8004C248231ED302000B2000E30B30032308F
:10050800B4000030B50084314C248231C030200062
:10051800B2001130B300A630B4000030B500843109
:100528004C2482315D302000B2001630B3007430A4
:10053800B4000030B50084314C248231ED30200005
:10054800B2000E30B3003230B4000030B500843150
:100558004C248231C0302000B2001130B300A630E4
:10056800B4000030B50084314C24823108002000EA
:10057800B301B11FC02AC12AC82AB009B109B00AFB
:100588000319B10A0130B300AF1FCB2ACC2AD12AF4
:10059800AE09AF09AE0A0319AF0A2E082F040319D2
:1005A800D62AD72AFE2A0130B200E12A0130AE3518
:1005B800AF0D890BDB2A0130B207AF1FE42AE52A09
:1005C800DA2A2F083102031DEB2A2E083002031CF9
:1005D800EE2AEF2AF32A2E08B0022F08B13B013089
:1005E800AF36AE0C890BF42A0130B202031DFD2A86
:1005F800FE2AE52A33080319022B032B082BB0091E
:10060800B109B00A0319B10A3108AF003008AE00C9
:10061800080020004D08A3004C08A2004B08A100C8
:100628004A08A0004C30A7009530A6007F30A500EE
:100638002D30A4008331422383310130200020076C
:10064800CA000030213DCB000030223DCC000030F4
:10065800233DCD004A08AA004B08AB004C08AC006B
:100668004D08AD001130AD36AC0CAB0CAA0C890BA3
:10067800372B2B08A9002A08A80008000030F6002C
:100688000030F5000030F4000030F3002000201C9A
:100698004E2B4F2B572B2408F3072508F43D26082B
:1006A800F53D2708F63D0130A435A50DA60DA70D8B
:1006B800890B582B0130A336A20CA10CA00C890B76
:1006C8005F2B2308220421042004031D6C2B6D2BAF
:1006D8004A2B7608A3007508A2007408A1007308C5
:1006E800A000080020005108AF005008AE004F08D5
:1006F800AD004E08AC002208A4002308A500A601FE
:10070800A7012C084E02A8002D084F3BA9002E086F
:10071800503BAA002F08513BAB0027082B02031DB2
:100728009F2B26082A02031D9F2B25082902031D3B
:100738009F2B24082802031CA22BA32B7F2B080025
:1007480020004908031DA92BAA2BAC2B0130C90096
:100758000030F300F40085319725833106302000FE
:10076800AE000030AF0083310D238331200029080B
:10077800B1002808B0008231BB22833120002E0846
:10078800013EF700770808002000A001A101731CB2
:10079800CE2BCF2BD42B75082000A0077608A13DBF
:1007A8000130F535F60D890BD52B0130F436F30CF5
:1007B800890BDA2B73087404031DE32BE42BCB2B72
:1007C80020002108F4002008F3000800F400F501D7
:1007D80001307405F30022000C087306FE39730615
:1007E8008C007408F3000130F336890BF82B73087A
:1007F800F4008C14000022008C1000000130F50772
:1008080008307502031C092C0A2CEC2B0800220066
:100818008C01083021008C0023008C010830240052
:100828008C002100951325008C01373026008C00A0
:100838003F3027008C009101083092009301063068
:10084800F3000630F4008531DF2584318B1508006C
:1008580001302000D4070030D53D01305502C930A1
:1008680003195402031C392C3A2C4B2C023057061E
:10087800031D3F2C402C422C0330D7005703031D87
:10088800462C472C492C0430D700D401D501080048
:1008980020003308B1003208B0008531A125843129
:1008A8008531EE25843120003508A3003408A200E4
:1008B8008331762384318531EB2584312130F7006B
:1008C8007630890B652CF70B652C00320800200068
:1008D8003308AF003208AE008431A52484312000EB
:1008E8002F08B1002E08B0008531A125843185314B
:1008F800EE25843120003508A3003408A200833196
:10090800762384318531EB258431080022008C124E
:100918000130F7007708853172258431FA302000DC
:10092800A2000030A3008331762384310130F70719
:1009380007307702031CA12CA22C8E2C22008C16C7
:10094800080020002E08A0002F08A100A201A30182
:100958000030A7003D30A6000930A5000030A400F3
:100968008131C221843120002008FF3EAE00FF30D3
:10097800213DAF00080020001810FC309700183007
:1009880096001708F9001608F80099010530C1000B
:100998000630C2000030BF000030C0001110210036
:1009A800111405302000980008003B00BC01BD016F
:1009B800BE01BF01C001B2010330B1000130B40073
:1009C800F430B3000330B600E830B5001F30B8008B
:1009D8004030B700BA01B901BB0108002000181D5A
:1009E800F62CF72C052D18080139F200181071089B
:1009F800970070089600720C031C1810031818143E
:100A0800092D710897007008960008008531AA25FD
:100A1800853184310B2485318431D9248531853160
:100A2800452585318431BF24853185313625853189
:100A380085318C25853108007908F1007808F000A7
:100A48008431F224853120004108420403192D2DF8
:100A58002E2D332D42088A0041080A0085312000D6
:100A6800111008003F3020009B009A010430BD009F
:100A78000630BE009110210091147B3020009C00AC
:100A880008002100951215160730950495152000C9
:100A98009501FA010030C3000030C4000B110800B2
:100AA80020003D083E0403195A2D5B2D602D3E0899
:100AB8008A003D080A0085312000911008002000B6
:100AC800450846040319692D6A2D6F2D46088A00CA
:100AD80045080A008531270093110800F6007608BA
:100AE800CC3E840085300318013E85000008833120
:100AF800EA2385310800A0302000B2000F30B3008F
:100B08003708B5003608B40084316B2485310800F5
:100B18008B10210015170030F3000030F4008531E8
:100B2800E525853108007308FF3E2000CA00FF3024
:100B3800743DCB00CC01CD010800200031083B00FA
:100B4800B600200030083B00B500080068302100DE
:100B580099008030220096002100980108002700A3
:100B6800931DB72DB82DBB2D853163258531080020
:100B780001302000CE070030CF3DD03DD13D0800E8
:100B880001302000D6000230D700D401D50108007A
:100B98000034083444344C3455345D3477347408A4
:100BA8002000BE007308BD00080074082000C200C1
:100BB8007308C100080074082000C6007308C50047
:100BC800080074082000C8007308C70008003B002C
:100BD800BB1308003B00BB17080020001C110800CD
:100BE80020001C1508002000181008002000181408
:100BF80008006434003432340034013400340134E1
:060C0800080008000800CE
:020000040001F9
:04000E00A43BFF1EF2
:00000001FF
