:040000000128FE2FA6
:100F7A007308F1007208F00008008731D127873121
:100F8A0022000C15C52F0128783021009900220073
:100F9A0096012100980108008731C92787318731D6
:100FAA00E62787318731DB27873108008B1021003C
:100FBA0015170030F2000030F3008731BD27873162
:100FCA00080022008C01083021008C0023008C01CB
:100FDA00083024008C002100951325008C0137303D
:100FEA0026008C003F3027008C009101920193016A
:060FFA0008002000C22FD8
:020000040001F9
:04000E00A43FFF1EEE
:00000001FF
